{
  "contractName": "Casino",
  "abi": [
    {
      "constant": true,
      "inputs": [],
      "name": "numberOfBets",
      "outputs": [
        {
          "name": "",
          "type": "uint256"
        }
      ],
      "payable": false,
      "stateMutability": "view",
      "type": "function"
    },
    {
      "constant": true,
      "inputs": [
        {
          "name": "",
          "type": "address"
        }
      ],
      "name": "playerInfo",
      "outputs": [
        {
          "name": "amountBet",
          "type": "uint256"
        },
        {
          "name": "numberSelected",
          "type": "uint256"
        }
      ],
      "payable": false,
      "stateMutability": "view",
      "type": "function"
    },
    {
      "constant": true,
      "inputs": [],
      "name": "owner",
      "outputs": [
        {
          "name": "",
          "type": "address"
        }
      ],
      "payable": false,
      "stateMutability": "view",
      "type": "function"
    },
    {
      "constant": true,
      "inputs": [],
      "name": "maxAmountsOfBets",
      "outputs": [
        {
          "name": "",
          "type": "uint256"
        }
      ],
      "payable": false,
      "stateMutability": "view",
      "type": "function"
    },
    {
      "constant": true,
      "inputs": [],
      "name": "minimumBet",
      "outputs": [
        {
          "name": "",
          "type": "uint256"
        }
      ],
      "payable": false,
      "stateMutability": "view",
      "type": "function"
    },
    {
      "constant": true,
      "inputs": [
        {
          "name": "",
          "type": "uint256"
        }
      ],
      "name": "players",
      "outputs": [
        {
          "name": "",
          "type": "address"
        }
      ],
      "payable": false,
      "stateMutability": "view",
      "type": "function"
    },
    {
      "constant": true,
      "inputs": [],
      "name": "totalBet",
      "outputs": [
        {
          "name": "",
          "type": "uint256"
        }
      ],
      "payable": false,
      "stateMutability": "view",
      "type": "function"
    },
    {
      "inputs": [
        {
          "name": "_minimumBet",
          "type": "uint256"
        }
      ],
      "payable": false,
      "stateMutability": "nonpayable",
      "type": "constructor"
    },
    {
      "payable": true,
      "stateMutability": "payable",
      "type": "fallback"
    },
    {
      "constant": false,
      "inputs": [],
      "name": "kill",
      "outputs": [],
      "payable": false,
      "stateMutability": "nonpayable",
      "type": "function"
    },
    {
      "constant": true,
      "inputs": [
        {
          "name": "_playerAddress",
          "type": "address"
        }
      ],
      "name": "checkPlayerExists",
      "outputs": [
        {
          "name": "",
          "type": "bool"
        }
      ],
      "payable": false,
      "stateMutability": "view",
      "type": "function"
    },
    {
      "constant": false,
      "inputs": [
        {
          "name": "_numberSelected",
          "type": "uint8"
        }
      ],
      "name": "bet",
      "outputs": [],
      "payable": true,
      "stateMutability": "payable",
      "type": "function"
    }
  ],
  "bytecode": "0x6080604052606460045534801561001557600080fd5b50604051602080610a758339810180604052602081101561003557600080fd5b8101908080519060200190929190505050336000806101000a81548173ffffffffffffffffffffffffffffffffffffffff021916908373ffffffffffffffffffffffffffffffffffffffff16021790555060008114151561009857806001819055505b506109cd806100a86000396000f3fe6080604052600436106100a4576000357c0100000000000000000000000000000000000000000000000000000000900463ffffffff1680632ca8c6d3146100a65780634081d916146100d157806341c0e1b51461013a5780634b114691146101515780638da5cb5b146101bd578063ab62a0a014610214578063c38a8afd1461023f578063d0821b0e1461026a578063f71d96cb1461029b578063fe5e185314610316575b005b3480156100b257600080fd5b506100bb610341565b6040518082815260200191505060405180910390f35b3480156100dd57600080fd5b50610120600480360360208110156100f457600080fd5b81019080803573ffffffffffffffffffffffffffffffffffffffff169060200190929190505050610347565b604051808215151515815260200191505060405180910390f35b34801561014657600080fd5b5061014f6103f1565b005b34801561015d57600080fd5b506101a06004803603602081101561017457600080fd5b81019080803573ffffffffffffffffffffffffffffffffffffffff169060200190929190505050610482565b604051808381526020018281526020019250505060405180910390f35b3480156101c957600080fd5b506101d26104a6565b604051808273ffffffffffffffffffffffffffffffffffffffff1673ffffffffffffffffffffffffffffffffffffffff16815260200191505060405180910390f35b34801561022057600080fd5b506102296104cb565b6040518082815260200191505060405180910390f35b34801561024b57600080fd5b506102546104d1565b6040518082815260200191505060405180910390f35b6102996004803603602081101561028057600080fd5b81019080803560ff1690602001909291905050506104d7565b005b3480156102a757600080fd5b506102d4600480360360208110156102be57600080fd5b8101908080359060200190929190505050610652565b604051808273ffffffffffffffffffffffffffffffffffffffff1673ffffffffffffffffffffffffffffffffffffffff16815260200191505060405180910390f35b34801561032257600080fd5b5061032b610690565b6040518082815260200191505060405180910390f35b60035481565b600080600090505b6005805490508160ff1610156103e6578273ffffffffffffffffffffffffffffffffffffffff1660058260ff1681548110151561038857fe5b9060005260206000200160009054906101000a900473ffffffffffffffffffffffffffffffffffffffff1673ffffffffffffffffffffffffffffffffffffffff1614156103d95760019150506103ec565b808060010191505061034f565b50600090505b919050565b6000809054906101000a900473ffffffffffffffffffffffffffffffffffffffff1673ffffffffffffffffffffffffffffffffffffffff163373ffffffffffffffffffffffffffffffffffffffff161415610480576000809054906101000a900473ffffffffffffffffffffffffffffffffffffffff1673ffffffffffffffffffffffffffffffffffffffff16ff5b565b60066020528060005260406000206000915090508060000154908060010154905082565b6000809054906101000a900473ffffffffffffffffffffffffffffffffffffffff1681565b60045481565b60015481565b6104e033610347565b1515156104ec57600080fd5b60018160ff16101580156105045750600a8160ff1611155b151561050f57600080fd5b600154341015151561052057600080fd5b34600660003373ffffffffffffffffffffffffffffffffffffffff1673ffffffffffffffffffffffffffffffffffffffff168152602001908152602001600020600001819055508060ff16600660003373ffffffffffffffffffffffffffffffffffffffff1673ffffffffffffffffffffffffffffffffffffffff1681526020019081526020016000206001018190555060036000815480929190600101919050555060053390806001815401808255809150509060018203906000526020600020016000909192909190916101000a81548173ffffffffffffffffffffffffffffffffffffffff021916908373ffffffffffffffffffffffffffffffffffffffff160217905550503460026000828254019250508190555060045460035410151561064f5761064e610696565b5b50565b60058181548110151561066157fe5b906000526020600020016000915054906101000a900473ffffffffffffffffffffffffffffffffffffffff1681565b60025481565b60006001600a4243018115156106a857fe5b060190506106b5816106b8565b50565b6106c061092c565b600080905060008090505b6005805490508160ff16101561081b57600060058260ff168154811015156106ef57fe5b9060005260206000200160009054906101000a900473ffffffffffffffffffffffffffffffffffffffff1690508460ff16600660008373ffffffffffffffffffffffffffffffffffffffff1673ffffffffffffffffffffffffffffffffffffffff1681526020019081526020016000206001015414156107bb5780848460ff1660648110151561077b57fe5b602002019073ffffffffffffffffffffffffffffffffffffffff16908173ffffffffffffffffffffffffffffffffffffffff168152505082806001019350505b600660008273ffffffffffffffffffffffffffffffffffffffff1673ffffffffffffffffffffffffffffffffffffffff168152602001908152602001600020600080820160009055600182016000905550505080806001019150506106cb565b50600060058161082b9190610950565b5060008160ff1660025481151561083e57fe5b04905060008090505b8260ff168160ff1610156108fb576000848260ff1660648110151561086857fe5b60200201519050600073ffffffffffffffffffffffffffffffffffffffff168173ffffffffffffffffffffffffffffffffffffffff161415156108ed578073ffffffffffffffffffffffffffffffffffffffff166108fc849081150290604051600060405180830381858888f193505050501580156108eb573d6000803e3d6000fd5b505b508080600101915050610847565b5061090461090a565b50505050565b60006005816109199190610950565b5060006002819055506000600381905550565b610c8060405190810160405280606490602082028038833980820191505090505090565b81548183558181111561097757818360005260206000209182019101610976919061097c565b5b505050565b61099e91905b8082111561099a576000816000905550600101610982565b5090565b9056fea165627a7a72305820f983d040b1b9025ee87c6055b133f9e4269282b8f3e182e972cf53e4aad10da70029",
  "source": "//pragma solidity 0.4.20; ///compiler version\npragma solidity ^0.5.0; ///compiler version\n\ncontract Casino {\n  address public owner;\n  uint256 public minimumBet;\n  uint256 public totalBet;\n  uint256 public numberOfBets;\n  uint256 public maxAmountsOfBets = 100;\n  address[] public players;\n\n  struct Player {\n    uint256 amountBet;\n    uint256 numberSelected;\n  }\n\n  mapping (address => Player) public playerInfo;\n\n  //Fallback function in case someone sends ether to the contract so it doesn't get lost and to increase the treasury of this contract that will be distributed in each game\n  function() external payable {}\n  //This will allow you to save the ether you send to the contract. Otherwise it would be rejected.\n\n  constructor(uint256 _minimumBet) public { // _ underscore is used before the parameters\n    owner = msg.sender;\n    if(_minimumBet != 0) minimumBet = _minimumBet;\n  }\n\n  function kill() public {\n    if(msg.sender == owner) selfdestruct(address(uint160(owner)));\n  }\n\n  function checkPlayerExists(address _playerAddress) public view returns(bool) {\n    for(uint8 i = 0; i < players.length; i++) {\n      if(players[i] == _playerAddress) return true;\n    }\n    return false;\n  }\n\n  function resetData() internal {\n     players.length = 0; // Delete all the players array\n     totalBet = 0;\n     numberOfBets = 0;\n  }\n\n\n\n  function distributePrize(uint8 _numberGenerated) internal {\n    address[100] memory winners; //temporary array created in memory with fixed size\n    uint8 count = 0;\n    for(uint8 i = 0; i < players.length; i++) {\n      address playerAddress = players[i];\n      if(playerInfo[playerAddress].numberSelected == _numberGenerated) {\n        winners[count] = playerAddress;\n        count++;\n      }\n      delete playerInfo[playerAddress];\n    }\n    players.length = 0; //deletes the players in the array\n    uint256 winnerEtherAmount = totalBet/count; //what if count is zero.\n    for(uint8 i = 0; i < count; i++) {\n      address payable payTo = address(uint160(winners[i]));\n      if(payTo != address(0)) { //checking that address is not empty due to error\n        payTo.transfer(winnerEtherAmount);\n      }\n    }\n    resetData();\n  }\n\n  function generateWinnerNumber() internal {\n    uint256 numberGenerated = (block.number+now)%10 + 1;\n    distributePrize(uint8(numberGenerated));\n  }\n\n\n  //betting function for number from 1 to 10\n  function bet(uint8 _numberSelected) public payable { //payable is a modifier,, it’s used to indicate that this function can receive ether when you execute it.\n    require(!checkPlayerExists(msg.sender)); //checks whether msg.sender exists in players array\n    require(_numberSelected >= 1 && _numberSelected <= 10);\n    require(msg.value >= minimumBet);\n    playerInfo[msg.sender].amountBet = msg.value;\n    playerInfo[msg.sender].numberSelected = _numberSelected;\n    numberOfBets++;\n    players.push(msg.sender);\n    totalBet += msg.value;\n    if (numberOfBets >= maxAmountsOfBets) generateWinnerNumber();\n  }\n}\n",
  "sourcePath": "/Users/sohamzemse/Desktop/casino-ethereum/contracts/Casino.sol",
  "compiler": {
    "name": "solc",
    "version": "0.5.0+commit.1d4f565a.Emscripten.clang"
  },
  "schemaVersion": "3.0.1",
  "updatedAt": "2019-01-22T18:51:29.481Z",
  "devdoc": {
    "methods": {}
  },
  "userdoc": {
    "methods": {},
    "notice": "compiler version"
  }
}